{
  "_format": "hh-sol-artifact-1",
  "contractName": "HealthInference",
  "sourceName": "contracts/HealthInference.sol",
  "abi": [
    {
      "inputs": [
        {
          "internalType": "address",
          "name": "_gatewayAddr",
          "type": "address"
        }
      ],
      "stateMutability": "nonpayable",
      "type": "constructor"
    },
    {
      "anonymous": false,
      "inputs": [
        {
          "indexed": true,
          "internalType": "address",
          "name": "user",
          "type": "address"
        },
        {
          "indexed": false,
          "internalType": "bytes",
          "name": "encryptedResult",
          "type": "bytes"
        }
      ],
      "name": "EncryptedResultPublished",
      "type": "event"
    },
    {
      "anonymous": false,
      "inputs": [
        {
          "indexed": true,
          "internalType": "address",
          "name": "user",
          "type": "address"
        },
        {
          "indexed": false,
          "internalType": "bytes",
          "name": "requestId",
          "type": "bytes"
        }
      ],
      "name": "InferenceRequested",
      "type": "event"
    },
    {
      "anonymous": false,
      "inputs": [
        {
          "indexed": true,
          "internalType": "address",
          "name": "user",
          "type": "address"
        }
      ],
      "name": "PayloadSubmitted",
      "type": "event"
    },
    {
      "inputs": [
        {
          "internalType": "address",
          "name": "",
          "type": "address"
        }
      ],
      "name": "encryptedPayload",
      "outputs": [
        {
          "internalType": "bytes",
          "name": "",
          "type": "bytes"
        }
      ],
      "stateMutability": "view",
      "type": "function"
    },
    {
      "inputs": [],
      "name": "gatewayAddr",
      "outputs": [
        {
          "internalType": "address",
          "name": "",
          "type": "address"
        }
      ],
      "stateMutability": "view",
      "type": "function"
    },
    {
      "inputs": [],
      "name": "owner",
      "outputs": [
        {
          "internalType": "address",
          "name": "",
          "type": "address"
        }
      ],
      "stateMutability": "view",
      "type": "function"
    },
    {
      "inputs": [
        {
          "internalType": "address",
          "name": "user",
          "type": "address"
        },
        {
          "internalType": "bytes",
          "name": "encryptedResult",
          "type": "bytes"
        }
      ],
      "name": "publishEncryptedResult",
      "outputs": [],
      "stateMutability": "nonpayable",
      "type": "function"
    },
    {
      "inputs": [
        {
          "internalType": "address",
          "name": "user",
          "type": "address"
        },
        {
          "internalType": "bytes",
          "name": "",
          "type": "bytes"
        }
      ],
      "name": "requestDecryption",
      "outputs": [
        {
          "internalType": "bytes",
          "name": "requestId",
          "type": "bytes"
        }
      ],
      "stateMutability": "nonpayable",
      "type": "function"
    },
    {
      "inputs": [
        {
          "internalType": "bytes",
          "name": "ciphertext",
          "type": "bytes"
        }
      ],
      "name": "submitPayload",
      "outputs": [],
      "stateMutability": "nonpayable",
      "type": "function"
    }
  ],
  "bytecode": "0x608060405234801561001057600080fd5b506040516106ea3803806106ea83398101604081905261002f91610062565b60018054336001600160a01b031991821617909155600280549091166001600160a01b0392909216919091179055610092565b60006020828403121561007457600080fd5b81516001600160a01b038116811461008b57600080fd5b9392505050565b610649806100a16000396000f3fe608060405234801561001057600080fd5b50600436106100625760003560e01c8063214d41a414610067578063216f3fc31461007c5780633c46d619146100a55780638da5cb5b146100d0578063c4839b13146100e3578063d5bb4826146100f6575b600080fd5b61007a61007536600461037c565b610109565b005b61008f61008a3660046103cf565b6101b0565b60405161009c91906103f1565b60405180910390f35b6002546100b8906001600160a01b031681565b6040516001600160a01b03909116815260200161009c565b6001546100b8906001600160a01b031681565b61007a6100f1366004610440565b61024a565b61008f61010436600461037c565b610294565b6001546001600160a01b031633148061012c57506002546001600160a01b031633145b6101685760405162461bcd60e51b81526020600482015260096024820152683337b93134b23232b760b91b604482015260640160405180910390fd5b826001600160a01b03167fdd26dae6f489ea3a13c1457593ff7ff8824d3fe0c8d08c54359942a402dddf0483836040516101a3929190610482565b60405180910390a2505050565b600060208190529081526040902080546101c9906104b1565b80601f01602080910402602001604051908101604052809291908181526020018280546101f5906104b1565b80156102425780601f1061021757610100808354040283529160200191610242565b820191906000526020600020905b81548152906001019060200180831161022557829003601f168201915b505050505081565b336000908152602081905260409020610264828483610552565b5060405133907f6ad02dfdfa5859a4ee6e3f9fd023204cb7e2422294494a3ad6fb6538cd60db3e90600090a25050565b604051606084811b6bffffffffffffffffffffffff19166020830152426034830152906000906054016040516020818303038152906040529050846001600160a01b03167f7fd7246cf1ff0957ae11b4cbd371c28ef757d93c9836c67c320e0a829fc9a1b48260405161030791906103f1565b60405180910390a2949350505050565b80356001600160a01b038116811461032e57600080fd5b919050565b60008083601f84011261034557600080fd5b50813567ffffffffffffffff81111561035d57600080fd5b60208301915083602082850101111561037557600080fd5b9250929050565b60008060006040848603121561039157600080fd5b61039a84610317565b9250602084013567ffffffffffffffff8111156103b657600080fd5b6103c286828701610333565b9497909650939450505050565b6000602082840312156103e157600080fd5b6103ea82610317565b9392505050565b60006020808352835180602085015260005b8181101561041f57858101830151858201604001528201610403565b506000604082860101526040601f19601f8301168501019250505092915050565b6000806020838503121561045357600080fd5b823567ffffffffffffffff81111561046a57600080fd5b61047685828601610333565b90969095509350505050565b60208152816020820152818360408301376000818301604090810191909152601f909201601f19160101919050565b600181811c908216806104c557607f821691505b6020821081036104e557634e487b7160e01b600052602260045260246000fd5b50919050565b634e487b7160e01b600052604160045260246000fd5b601f82111561054d576000816000526020600020601f850160051c8101602086101561052a5750805b601f850160051c820191505b8181101561054957828155600101610536565b5050505b505050565b67ffffffffffffffff83111561056a5761056a6104eb565b61057e8361057883546104b1565b83610501565b6000601f8411600181146105b2576000851561059a5750838201355b600019600387901b1c1916600186901b17835561060c565b600083815260209020601f19861690835b828110156105e357868501358255602094850194600190920191016105c3565b50868210156106005760001960f88860031b161c19848701351681555b505060018560011b0183555b505050505056fea26469706673582212206e7608cafc402cb5489f89817e7365f7e8d9fbd5128732950a4c0e8198232eab64736f6c63430008180033",
  "linkReferences": {},
  "deployedLinkReferences": {}
}